:020000040000FA
:10000000020BFCA2874002D322C322021272A21565
:1000100092173015097F0E1218308F438003E4F5D4
:1000200043AD43E4FF02105D021875020F8275F1C3
:10003000E075D4FF75C78075D77F22020530E4F5DF
:10004000C9222202086575F42475F5FF53C1BF4328
:10005000C190220209FEE5C8540453C8FB75CDFEC9
:1000600075CC6875CBFE75CA6843C80442C822E4E3
:10007000F5D122021837E88FF0A4CC8BF0A42CFC29
:10008000E98EF0A42CFC8AF0EDA42CFCEA8EF0A4FE
:10009000CDA8F08BF0A42DCC3825F0FDE98FF0A48D
:1000A0002CCD35F0FCEB8EF0A4FEA9F0EB8FF0A484
:1000B000CFC5F02ECD39FEE43CFCEAA42DCE35F0C0
:1000C000FDE43CFC22EB9FF5F0EA9E42F0E99D4204
:1000D000F0EC6480C864809845F022EB9FF5F0EA6C
:1000E0009E42F0E99D42F0E89C45F022E8600FEC6A
:1000F000C313FCED13FDEE13FEEF13FFD8F122E85E
:100100006010ECA2E713FCED13FDEE13FEEF13FFFE
:10011000D8F022E8600FEFC333FFEE33FEED33FD7E
:10012000EC33FCD8F122E6FC08E6FD08E6FE08E622
:10013000FF227401FF3395E0FEFDFC080808E62F5E
:10014000FFF618E63EFEF618E63DFDF618E63CFC26
:10015000F622ECF608EDF608EEF608EFF62275F05A
:1001600008758200EF2FFFEE33FECD33CDCC33CCBC
:10017000C58233C5829BED9AEC99E58298400CF5D7
:1001800082EE9BFEED9AFDEC99FC0FD5F0D6E4CE05
:10019000FBE4CDFAE4CCF9A88222B800C1B9005939
:1001A000BA002DEC8BF084CFCECDFCE5F0CBF97806
:1001B00018EF2FFFEE33FEED33FDEC33FCEB33FB9A
:1001C00010D703994004EB99FB0FD8E5E4F9FA2224
:1001D0007818EF2FFFEE33FEED33FDEC33FCC9331F
:1001E000C910D7059BE99A4007EC9BFCE99AF90FE7
:1001F000D8E0E4C9FAE4CCFB2275F010EF2FFFEE53
:1002000033FEED33FDCC33CCC833C810D7079BEC9D
:100210009AE899400AED9BFDEC9AFCE899F80FD515
:10022000F0DAE4CDFBE4CCFAE4C8F9228F0A121527
:100230000BC3EF94ACEE6480948D4003D38001C374
:1002400092147F0F1218308F0BE5541460731470E2
:10025000030203251470030203481470030203B55C
:10026000240460030203CCE50A5402600BE50B543E
:100270000160053014028057E50A5404602FE50B35
:100280005402600D1213D4EF640170053014028023
:1002900067E50B5404600D1213D4EF64027005304F
:1002A000140280541213D4EF60150203B012167CAE
:1002B0005005301402802E12181450030203CC8013
:1002C000513014531217CC5017E50B540160117FB5
:1002D000021216A0E4FD7F0F12182912187C802448
:1002E00012167C50057F020203B21213D4EF64028F
:1002F0007017E50B540460117F041216A0E4FD7F13
:100300000F1218297F030203B21213D4EF60030205
:1003100003CC7F050203B21213D4EF60030203CCB7
:100320007F050203B212181450030203CC7F01129E
:1003300016A0E4FD7F0F1218297F03120C991216E4
:10034000E4C2157F1002166912150BC3EF94E4EE98
:100350006480948C5021E553B4100CE552B4270707
:10036000D2157F80121669E55345526020E553157A
:1003700053701A155280167552277553107F02124A
:100380001830EF30E707C2157F801216691216E4A5
:1003900050047F04801CE5534552600A7F101218F8
:1003A00030EF640F70261213D4EF70047F058002C3
:1003B0007F01020C9912181440121213D4EF70042A
:1003C0007F0580027F01120C991216E4228E168F8F
:1003D000178D18E51820E00302048425E025E024A9
:1003E00055F812012678081200ECC004C005C006BA
:1003F000C007E51825E025E02455F8120126D003B2
:10040000D002D001D000C3EF9BFBEE9AFAED99F930
:10041000EC98F8E4FCFDEB2517FFEA3516FEED3904
:10042000FDEC38FCE51825E025E02455F8120152D2
:10043000E51825E025E02455F81201267808120079
:10044000EC8E198F1AE51830E11DE51A25E0FFE55D
:100450001933FE74822FF58274203EF583E493FEF7
:10046000740193FF021598E51A25E0FFE51933FEA4
:1004700074822FF58274203EF583E493FE74019319
:10048000FF02156AE51825E025E02455F81201263B
:1004900078051200ECC004C005C006C007E51825A9
:1004A000E025E02455F8120126D003D002D001D077
:1004B00000C3EF9BFBEE9AFAED99F9EC98F8E4FC97
:1004C000FDEB2517FFEA3516FEED39FDEC38FCE5AE
:1004D0001825E025E02455F8120152E51825E025FD
:1004E000E02455F812012678051200EC8E198F1AB7
:1004F000E51830E11DE51A25E0FFE51933FE7482A9
:100500002FF58274183EF583E493FE740193FF0285
:100510001581E51A25E0FFE51933FE74822FF58277
:1005200074183EF583E493FE740193FF1215532271
:10053000C0E0C0F0C083C082C0D075D000C000C091
:1005400001C002C003C004C005C006C00720130DCF
:10055000D21353C1EF53E67F5391FBD2C530C20390
:1005600002061EE5C054F0605424F070030205F842
:1005700024D070030205FA24F07003020610243020
:100580006003020616C2C5E5F455F554FEFFE5C248
:1005900055F554FE6F6003020626D211C212E5C261
:1005A000540164017013AF4FAE4E12132E8FC2056B
:1005B0004FE54F7071054E806DD2C18069301113C7
:1005C000C211D212AFC2754E008F4F7550007551D7
:1005D00000802130120DC212E54FADC2F54EEDF58F
:1005E0004F8011ADC2AF4FAE4E1212A2054FE54F74
:1005F0007002054ED2C1802E801630C129AF4FAE99
:100600004E12132E8FC2054FE54F701A054E8016FD
:10061000C213C2C4801053C17F43C1808000C2C5D1
:10062000C2C4C2C1C21320131243C1107593F9751D
:10063000924D53913F43910443E680C2C0D007D00E
:1006400006D005D004D003D002D001D000D0D0D045
:1006500082D083D0F0D0E03253E6F77F321213FC21
:10066000E4F54A754C07754DD0754B80D2167F0165
:100670001215F28E0B8F0CE50C7805C333CE33CEFA
:10068000D8F9FFE4FCFD7855120152E50C25E0FF96
:10069000E50B33FE74822FF58274183EF583E493E4
:1006A000FE740193FF1215537F021215F28E0B8F09
:1006B0000CE50C7F00FEE4FCFD7859120152E50CBC
:1006C00025E0FFE50B33FE74822FF58274203EF5A2
:1006D00083E493FE740193FF12156A7F031215F2EF
:1006E0008E0B8F0CE50C7805C333CE33CED8F9FFD3
:1006F000E4FCFD785D120152E50C25E0FFE50B33CB
:10070000FE74822FF58274183EF583E493FE740123
:1007100093FF1215817F041215F28E0B8F0CE50CDE
:100720007F00FEE4FCFD7861120152E50C25E0FF3C
:10073000E50B33FE74822FF58274203EF583E4933B
:10074000FE740193FF1215987F1B1215F28E0B8F0A
:100750000CE4F50AC3E50A940774809480500BAF4B
:100760000CAE0B120F2D050A80EA75BB01D28C432B
:10077000E60822300C24C20C1213598F118E108DF2
:100780000F8C0E12181BAE10AD0FAC0E85112B8EF8
:100790002A8D298C28121822804612181BAF2BAEE6
:1007A0002AAD29AC288F118E108D0F8C0E121822B5
:1007B000AF37AE36AD35AC34AB11AA10A90FA80EC9
:1007C000C31200DB601AAF11AE10AD0FAC0E1214E5
:1007D00047AE10AD0FAC0E8511378E368D358C348B
:1007E0007F0F121830EF13921430141220100F12D2
:1007F00013828F278E268D258C24D21080082014FA
:1008000005301002C2101213AB8F0D8E0C8D0B8CA5
:100810000AAF2FAE2EAD2DAC2CAB0DAA0CA90BA898
:100820000AC31200C5603DC20DAC0AEC3350028011
:1008300001C3920EAE0CAD0BAC0A850D338E328D1A
:10084000318C30AE0CAD0BAC0A850D2F8E2E8D2D5C
:100850008C2CAF0DAE0CAD0BAC0AEC4D4E4FC36003
:1008600001D3920D22C0E0C0F0C083C082C0D07519
:10087000D000C000C001C002C003C004C005C00653
:10088000C007AF2BAE2AAD29AC28EF2401F52BE42D
:100890003EF52AE43DF529E43CF528300D60300EA4
:1008A000277830120132EC4D4E4F7052AF2BAE2AEA
:1008B000AD29AC28EF24FFF52BEE34FFF52AED34FB
:1008C000FFF529EC34FF8024783074FF120134ECFA
:1008D0004D4E4F7029AF2BAE2AAD29AC28EF240125
:1008E000F52BE43EF52AE43DF529E43CF528AF2F4D
:1008F000AE2EAD2DAC2C8F338E328D318C3030102E
:100900001AAF27AE26AD25AC24AB2BAA2AA929A85D
:1009100028C31200DB4004D20FC21075AC1475ADB1
:10092000940075AC1475AD9CD007D006D005D004EA
:10093000D003D002D001D000D0D0D082D083D0F06C
:10094000D0E032AFA975AEA575AEF175AC0575AD49
:1009500060E5AC5480648060F875AC0675AD0EE55A
:10096000AC5480648060F875AC0875ADFEE5AC549D
:1009700080648060F875AC0975AD7FE5AC54806427
:100980008060F875AC04E4F5ADE5AC54806480603B
:10099000F875AC0443AD80E5AC5480648060F875B4
:1009A000A9747D507C01ED1D70011CED4C70F77534
:1009B000AC85E5AC5480648060F8E5AD541060EF20
:1009C00075AC0575AD40E5AC5480648060F875ACDD
:1009D000047C017D00ED1D70011CED4C70F775B5B8
:1009E000208FA9E5A954806480C37001D350F475A9
:1009F000AC0475AD9CE5AC5480648060F822C0E026
:100A0000C0F0C083C082C0D075D000C000C001C09B
:100A100002C003C004C005C006C007AF4AD3EF94AC
:100A20000374809480500BAD4AAFBDAEBE1203CDAF
:100A30008007AFBDAEBE120F2DAF4AEF6404700544
:100A400085494A802B054AAF4AD3EF9403748094BA
:100A5000804003754A00E54D154D7002154C14AEEB
:100A60004C4E700C754C07754DD0854A49754A043B
:100A7000E54A14600F146011146013240370147598
:100A8000BB01801275BB02800D75BB03800875BB6E
:100A900004800375BB1BC2EDD007D006D005D0047F
:100AA000D003D002D001D000D0D0D082D083D0F0FB
:100AB000D0E03230183BE4F50AC3E50A94087480AC
:100AC00094805021781EE6FE08E6FF2400F582742B
:100AD000003EF583E0FD12153C781F06E618700114
:100AE00006050A80D4C3781EE69404406FC21880BD
:100AF000647F121218308F0AE50AB457127D017F05
:100B000012121829D218E4781EF608F6021607E524
:100B10000A6452703C7D017F12121829E4781EF697
:100B200008F618F608F6781EE6FE08E6FFC3EE940F
:100B300004501C12168E781EE6FC08E62400F5828E
:100B400074003CF583EFF006E61870DA0680D78073
:100B500004E50A6007E4FD7F121218292278961630
:100B6000E66003020BFB760A7F111218308F0AE54C
:100B70000A7899666002A60A120E55300224C378DC
:100B800098E694F418E69401503C0806E6187001C3
:100B9000067898E664F4700418E664017028D204BC
:100BA00080243007217899E6FF7897E6FC08E6FD77
:100BB000C39FEC9400400FED94F4EC94015007D2E5
:100BC000157F10121669200206E47897F608F67F62
:100BD000003006027F027E003005027E01EE4FFFEC
:100BE0007E003002027E04EF4EFF7E00300B027E5C
:100BF00008EF4EF50AFD7F0312182922120028780B
:100C0000FFE4F6D8FD9000007F007E10E4F0A3DF43
:100C1000FCDEFA758199020C54020FD3E493A3F819
:100C2000E493A34003F68001F208DFF48029E49303
:100C3000A3F85407240CC8C333C4540F4420C883FA
:100C40004004F456800146F6DFE4800B01020408FC
:100C50001020408090187FE47E019360BCA3FF5475
:100C60003F30E509541FFEE493A360010ECF54C04A
:100C700025E060A840B8E493A3FAE493A3F8E493D2
:100C8000A3C8C582C8CAC583CAF0A3C8C582C8CADA
:100C9000C583CADFE9DEE780BE8F0CE50C14602552
:100CA00014603A14604214605614606124056003B5
:100CB000020D321211771214F2121301D215E4FF51
:100CC0001214D4806DC2157F011214D4C215120003
:100CD0000E1216F3E4FD7F101218298055D2157FED
:100CE000011214D4D2158020D2157F011214D4D24F
:100CF0001512000E12146C7552277553108033C2F2
:100D0000157F011214D4C21512000E8025E4FD7F58
:100D100010121829121701C2157F011214D4C2151E
:100D2000E4FF1214D4E4FF121141C21512000E1296
:100D3000187C850C54221545E5456003020DCC75E1
:100D4000450A7F0E1218308F0AE50A6543600A30A3
:100D50001707AD0AE4FF12105D1213D48F0AE50ADB
:100D600065476006121141850A47E54224FD60226D
:100D70001460371460432403705205440544AD44A5
:100D80007F0112105D1546E5467041754678754243
:100D9000032215441544AD447F0112105D1546E54C
:100DA000467029754678754202221546E546701C44
:100DB000754205754614FD800E1546E546700D75A5
:100DC00042047546147DC07F0112105D22EF24FF9E
:100DD000F519EE34FCF518E434FFF517E434FFF5AB
:100DE00016AF86E4FCFDFE7802120113C004C005B4
:100DF000C006C007AF85E4FCFDFE78061200FFD0F8
:100E000003D002D001D000EF4BFBEE4AFAED49F9D6
:100E1000EC48F8C3E5199BF519E5189AF518E5179C
:100E200099F517E51698F516AF19AE18AD17FC7BB6
:100E3000487AE8790178001200768F198E188D179C
:100E40008C16E47BDE7A87F9F81210198F198E1848
:100E50008D178C1622C3208701D39215C20730024A
:100E600008300305201502D207300306301503D3DE
:100E70008001C39202C3301501D39203C3208501C0
:100E8000D39215300806301503D38001C39205C3F1
:100E9000301501D39208C3208601D392153009067C
:100EA000301503D38001C39206C3301501D39209D4
:100EB000C3209001D39215300106301503D3800171
:100EC000C3920BC3301501D39201228F09E4FF12A4
:100ED0000C9912065812150BC3EF94ACEE64809473
:100EE0008D500D1213D4EF640160057F05120C992B
:100EF000E55464056036E4FF1214B25003120B5D32
:100F00007F011214B25003120D367F021214B25038
:100F100003120AB37F031214B250031207737F0443
:100F20001214B250CBAF0912022C80C422AD07AC10
:100F3000067865E625E02466F8A60408A605786527
:100F400006E664087001F6E4FEFFFDEDC394087444
:100F50008094805012ED25E02466F8E6FA08E62F2A
:100F6000FFEA3EFE0D80E4EF30E2062404FFE43E9B
:100F7000FEEF7803CEC313CE13D8F9FF120DCD02C6
:100F800015AFC0E0C0D075D000C000C004C005C01F
:100F900006C007D219AF3874392FF876010538AF7B
:100FA00038EF6405701BF538AF41AE40AD3FAC3E45
:100FB000EF2401F541E43EF540E43DF53FE43CF526
:100FC0003E53C83FD007D006D005D004D000D0D0C3
:100FD000D0E0321211771214F21210D212149012C1
:100FE00014221210981215C6E4F5081200035003DB
:100FF0004308011217B050034308041217CC5003E2
:10100000430802E508600D121241AF08120ECB1220
:10101000110A80D11215DC80CCC2D5E830E70FB2BE
:10102000D5E4C39BFBE49AFAE499F9E498F8EC3030
:10103000E717B2D512104F12019AE4C39BFBE49A52
:10104000FAE499F9E498F8800312019A30D50DE496
:10105000C39FFFE49EFEE49DFDE49CFC22C374FF5D
:101060009DFEEF601A14702F8D488EFCED700453B6
:10107000DABF22E5DA54406440601C43DA40228D36
:10108000438EEAAF05EF700453DBBF22E5DB54402B
:101090006440600343DB402285A70912174C1217F6
:1010A0005612003E12171C12006F12002E1216D498
:1010B00012004212176012183D120943121728122B
:1010C00018411217D512184512176A1211AB85096B
:1010D000A722E4781EF608F6781EE6FE08E6FFC3AF
:1010E000EE9404501C12168E781EE6FC08E62400CE
:1010F000F58274003CF583EFF006E61870DA06809E
:10110000D7E4781EF608F6C2182285A709121788B8
:101110001217BA1217C31217F112185D121806121D
:10112000180D1217401218611216431215241216C8
:101130001C12186512170F12179212120F8509A7A9
:1011400022EF14601014601A14601E24037027E448
:10115000F542FD801C75420275467875440AAD441F
:10116000800F7542017D8080087542047546147DAC
:10117000C07F0112105D22C203C202C207C204C2B4
:1011800008C209C205C206C20AC200C201C20B7867
:1011900096760AE408F608F67F111218307899A6B8
:1011A00007C293C296120E55020E55AFA9AEB27584
:1011B000A904E5A954806480C37001D350F453B2EC
:1011C0007F75B52075B5A60000EE548042B28FA998
:1011D000E5A954806480C37001D350F422AFA9AE56
:1011E000B275A904E5A954806480C37001D350F49A
:1011F00053B27F75B52075B5A60000EE548042B29B
:101200008FA9E5A954806480C37001D350F422AF44
:10121000A9AEB275A904E5A954806480C37001D356
:1012200050F453B27F75B52075B5A60000EE54801A
:1012300042B28FA9E5A954806480C37001D350F4F1
:101240002285A7091217EA12179C1217A612185125
:101250001218551218711217741217341216301210
:10126000005612165612185912004612177E85099A
:10127000A722C0E0C0D075D000C007D2EC30160D58
:10128000054BAF4BEF6488700FC216800B154BAF48
:101290004BEF64777002D216854B8CD007D0D0D03C
:1012A000E0328E1B8F1C8D1DC3E51B941050030272
:1012B00016B2E51C541FFFFD7C00C3940E7480948D
:1012C00080400E74762FF8A61DED64167003121878
:1012D0007922AFA9AEB275A904E5A954806480C390
:1012E0007001D350F453B27F75B5200000EE5480E6
:1012F00042B28FA9E5A954806480C37001D350F431
:1013000022C2ADC219E4F538AF38C3EF940574803A
:101310009480500CAF3874392FF8E4F6053880E823
:10132000E4F538F541F540F53FF53ED2AD228E1B90
:101330008F1CC3E51B941050071216C38F1D801617
:10134000E51C541FFF2476F8E6F51DEF64027006D5
:101350007878E654EFF6AF1D2253E6F72013FD53DD
:10136000E6FE7889E6F51208E6F51308E6F51408B6
:10137000E6F51543E60143E608AF15AE14AD13AC30
:10138000122253E6F72013FD53E6FE788DE6F512A0
:1013900008E6F51308E6F51408E6F51543E60143FB
:1013A000E608AF15AE14AD13AC122253E6F72013C6
:1013B000FD53E6FE7891E6F51208E6F51308E6F52A
:1013C0001408E6F51543E60143E608AF15AE14AD83
:1013D00013AC12227F003005027F017E003006022E
:1013E0007E02EE4207EF14600A14600A24027009BC
:1013F000E4FF227F01227F02227F0322C28D858C9F
:101400008AD28CAD071FED6014E4FEEEC394047421
:1014100080948050EE308DFDC28D0E80EEC28CC265
:101420008D22E4FFEFC39420748094805009747679
:101430002FF8E4F60F80ED7876760108761278843E
:1014400076807887760A228F158E148D138C12532E
:10145000E6F72013FD53E6FE7889A61208A61308C6
:10146000A61408A61543E60143E60822C21343C1A9
:10147000107593F975924D53913F43910443E68063
:1014800053C17F43C180C2C5C2C4C2C143E6012269
:10149000E4F52BF52AF529F528F537F536F535F578
:1014A00034F527F526F525F524C20CC210C20FC26B
:1014B0000D22C214EFC39405748094805013C2AD02
:1014C00074392FF8E6600874392FF8E4F6D214D294
:1014D000ADA21422EF600F147017C3301501D39220
:1014E0000AA20A929322C3301501D39200A200925D
:1014F0009622C217E4F542F54775450A754614FD74
:10150000FF12105DE4FD7F0102105D53E6F720132A
:10151000FD53E6FE787EE6FE08E6FDEDFF43E601BC
:1015200043E60822E5C85404FF53C8FBE4F5CDF5B3
:10153000CCF5CBF5CA53C8FBEF42C8228F828E830D
:10154000C2AF75B7A575B7F1758F05EDF0E4F58FEE
:10155000D2AF22AD07AC062013FD53E6FEECFF78B8
:101560007AA607ED08F643E60122AD07AC06201384
:10157000FD53E6FEECFF787CA607ED08F643E60196
:1015800022AD07AC062013FD53E6FEECFF787EA6E5
:1015900007ED08F643E60122AD07AC062013FD5324
:1015A000E6FEECFF7880A607ED08F643E60122ADE3
:1015B00007AC062013FD53E6FEECFF7882A607ED8C
:1015C00008F643E6012285A7091217DC1218491212
:1015D00017F81218691212D28509A72285A70912D5
:1015E00017E312184D1217FF12186D1211DD85093D
:1015F000A7228FBB7F0A1213FCC2EDD2EC30EDFDA7
:10160000C2EDAFBDAEBE22900000C2AF75B7A575EA
:10161000B7F1758F07E4F0F58FD2AF22E59154044E
:10162000FF5391FBE4F593F5925391FBEF42912226
:10163000AF885388AF758C80EF5440FEEF54104E46
:10164000428822AF885388AFE4F58CEF5440FEEF18
:1016500054104E428822E59154045391FB7593F93E
:1016600075924D43910442912253E6FEEFF478784F
:1016700056F6301503E64FF643E601227899E6FF69
:10168000D318E69F18E694004002D322C3228F822B
:101690008E83E4C2AF758F0493FFE4F58FD2AF223F
:1016A00053E6FEEF5407FF7878E654F84FF643E62A
:1016B0000122EE540FFE74002FF58274003EF58374
:1016C000EDF022EE540FFE74002FF58274003EF50B
:1016D00083E0FF2275900775A57875D50975A70F6A
:1016E00075A5782230040AC204E47897F608F6D388
:1016F00022C32253E6FE53E67F5391FBC2C1C213BD
:101700002253E6FE53C16F43C140C2C1C21322E45B
:10171000F5F475F5FE53C16F43C1402275BB0175E9
:10172000BC11E4F5C4F5C32275A904E5A95480648D
:101730008070F822E4F5A9E5A95480648070F8224D
:1017400075A904E5A95480648070F822E4F5A753D4
:10175000D9BF75D9082253DF7F75CE08E4F5D322AF
:10176000E4F5A775E3C075E1042275E60275F6029B
:1017700075A8802243B280E5B2544060FA2275E633
:101780008375F68375A8A222E4F5A775D90853D806
:10179000BF2275E60275F60275A8802253DF7F75B9
:1017A000DA42E4F5FC2253DF7F75DB42E4F5EA22FE
:1017B000308503208602D322C32253DF7FE4F5DA8B
:1017C000F5FC2253DF7FE4F5DBF5EA22300F04C29B
:1017D0000FD322C322758E0475890222E4F5A77502
:1017E000D90222E4F5A775D90822E4F5A743D84029
:1017F0002275BC1153E87F2275C72075D7DF22758B
:10180000C78075D77F2275C78075D77F2275E3C0E3
:10181000E4F5E222A202500122C32253E6F753E686
:10182000FD2243E60243E6082274762FF8A605223D
:1018300074762FF8E6FF22C2C153913F3275EF0252
:101840002275B6402243C1402243E8802253E87FFC
:101850002275BC192275D10422758E4222E4F5D17D
:101860002253B27F22758E042275E3402275E3C0B5
:101870002275E2022253D9BF22D20C22C20F22C10A
:10188000130000000006000C00120019001F0025C4
:10189000002B00310037003D0043004A0050005645
:1018A000005C00620068006E0075007B00810087AC
:1018B000008D00930099009F00A600AC00B200B814
:1018C00000BE00C400CA00D100D700DD00E300E97B
:1018D00000EF00F500FB01020108010E0114011ADE
:1018E00001200126012D01330139013F0145014B42
:1018F00001510157015E0164016A01700176017CAA
:1019000001820189018F0195019B01A101A701AD10
:1019100001B401BA01C001C601CC01D201D801DE77
:1019200001E501EB01F101F701FD020302090210DB
:101930000216021C02220228022E0234023A02413E
:101940000247024D02530259025F0265026C0272A5
:101950000278027E0284028A02900296029D02A30D
:1019600002A902AF02B502BB02C102C802CE02D474
:1019700002DA02E002E602EC02F202F902FF0305DB
:10198000030B03110317031D0324032A033003363B
:10199000033C03420348034E0355035B03610367A3
:1019A000036D0373037903800386038C039203980A
:1019B000039E03A403AA03B103B703BD03C303C972
:1019C00003CF03D503DC03E203E803EE03F403FAD9
:1019D00004000406040D04130419041F0425042B39
:1019E00004310438043E0444044A04500456045CA0
:1019F00004630469046F0475047B04810487048D07
:101A00000494049A04A004A604AC04B204B804BF6D
:101A100004C504CB04D104D704DD04E304E904F0D5
:101A200004F604FC05020508050E0514051B052136
:101A30000527052D05330539053F0545054C05529C
:101A40000558055E0564056A05700577057D058303
:101A50000589058F0595059B05A105A805AE05B46B
:101A600005BA05C005C605CC05D305D905DF05E5D2
:101A700005EB05F105F705FD0604060A0610061636
:101A8000061C06220628062F0635063B0641064799
:101A9000064D0653065906600666066C0672067801
:101AA000067E0684068B06910697069D06A306A968
:101AB00006AF06B506BC06C206C806CE06D406DAD0
:101AC00006E006E706ED06F306F906FF0705070B35
:101AD00007120718071E0724072A07300736073C96
:101AE00007430749074F0755075B07610767076EFD
:101AF0000774077A07800786078C07920798079F65
:101B000007A507AB07B107B707BD07C307CA07D0CB
:101B100007D607DC07E207E807EE07F407FB080132
:101B20000807080D08130819081F0826082C083292
:101B30000838083E0844084A08500857085D0863FA
:101B40000869086F0875087B08820888088E089461
:101B5000089A08A008A608AC08B308B908BF08C5C9
:101B600008CB08D108D708DE08E408EA08F008F630
:101B700008FC09020908090F0915091B0921092791
:101B8000092D0933093A09400946094C09520958F7
:101B9000095E0964096B09710977097D098309895F
:101BA000098F0996099C09A209A809AE09B409BAC6
:101BB00009C109C709CD09D309D909DF09E509EB2D
:101BC00009F209F809FE0A040A0A0A100A160A1D8F
:101BD0000A230A290A2F0A350A3B0A410A470A4EF4
:101BE0000A540A5A0A600A660A6C0A720A790A7F5B
:101BF0000A850A8B0A910A970A9D0AA30AAA0AB0C3
:101C00000AB60ABC0AC20AC80ACE0AD50ADB0AE129
:101C10000AE70AED0AF30AF90AFF0B060B0C0B128E
:101C20000B180B1E0B240B2A0B310B370B3D0B43F0
:101C30000B490B4F0B550B5B0B620B680B6E0B7458
:101C40000B7A0B800B860B8D0B930B990B9F0BA5BF
:101C50000BAB0BB10BB70BBE0BC40BCA0BD00BD627
:101C60000BDC0BE20BE90BEF0BF50BFB0C010C078C
:101C70000C0D0C130C1A0C200C260C2C0C320C38EE
:101C80000C3E0C450C4B0C510C570C5D0C630C6955
:101C90000C700C760C7C0C820C880C8E0C940C9ABC
:101CA0000CA10CA70CAD0CB30CB90CBF0CC50CCC23
:101CB0000CD20CD80CDE0CE40CEA0CF00CF60CFD8B
:101CC0000D030D090D0F0D150D1B0D210D280D2EEA
:101CD0000D340D3A0D400D460D4C0D520D590D5F52
:101CE0000D650D6B0D710D770D7D0D840D8A0D90B9
:101CF0000D960D9C0DA20DA80DAE0DB50DBB0DC121
:101D00000DC70DCD0DD30DD90DE00DE60DEC0DF287
:101D10000DF80DFE0E040E0A0E110E170E1D0E23E9
:101D20000E290E2F0E350E3C0E420E480E4E0E544E
:101D30000E5A0E600E660E6D0E730E790E7F0E85B6
:101D40000E8B0E910E980E9E0EA40EAA0EB00EB61D
:101D50000EBC0EC20EC90ECF0ED50EDB0EE10EE785
:101D60000EED0EF40EFA0F000F060F0C0F120F18E7
:101D70000F1F0F250F2B0F310F370F3D0F430F494B
:101D80000F500F560F5C0F620F680F6E0F740F7BB2
:101D90000F810F870F8D0F930F990F9F0FA50FAC1A
:101DA0000FB20FB80FBE0FC40FCA0FD00FD70FDD81
:101DB0000FE30FE90FEF0FF50FFB10011008100EE6
:101DC0001014101A10201026102C10331039103F48
:101DD0001045104B10511057105D1064106A1070B0
:101DE0001076107C10821088108F1095109B10A117
:101DF00010A710AD10B310B910C010C610CC10D27F
:101E000010D810DE10E410EB10F110F710FD1103E4
:101E10001109110F1115111C11221128112E113445
:101E2000113A11401147114D11531159115F1165AC
:101E3000116B11711178117E1184118A1190119614
:101E4000119C11A311A911AF11B511BB11C111C77B
:101E500011CE11D411DA11E011E611EC11F211F8E2
:101E600011FF1205120B12111217121D1223122A42
:101E700012301236123C12421248124E1254125BA9
:101E800012611267126D12731279127F1286128C10
:101E900012921298129E12A412AA12B012B712BD78
:101EA00012C312C912CF12D512DB12E212E812EEDF
:101EB00012F412FA13001306130C13131319131F41
:101EC0001325132B13311337133E1344134A1350A6
:101ED0001356135C13621368136F1375137B13810E
:101EE0001387138D1393139A13A013A613AC13B275
:101EF00013B813BE13C413CB13D113D713DD13E3DD
:101F000013E913EF13F613FC14021408140E14143F
:101F1000141A14201427142D14331439143F1445A3
:101F2000144B14521458145E1464146A147014760A
:101F3000147D14831489148F1495149B14A114A771
:101F400014AE14B414BA14C014C614CC14D214D9D8
:101F500014DF14E514EB14F114F714FD1503150A3E
:101F600015101516151C15221528152E1535153B9F
:101F700015411547154D15531559155F1566156C07
:101F800015721578157E1584158A15911597159D6E
:101F900015A315A915AF15B515BB15C215C815CED6
:101FA00015D415DA15E015E615ED15F315F915FF3D
:101FB0001605160B16111617161E1624162A16309D
:101FC0001636163C16421649164F1655165B166104
:101FD0001667166D1673167A16801686168C16926C
:101FE0001698169E16A516AB16B116B716BD16C3D3
:101FF00016C916CF16D616DC16E216E816EE16F43B
:1020000016FA17011707170D17131719171F17259A
:10201000172C17321738173E1744174A1750175600
:10202000175D17631769176F1775177B1781178867
:10203000178E1794179A17A017A617AC17B217B9CF
:1020400017BF17C517CB17D117D717DD17E417EA36
:1020500017F017F617FC18021808180E1815181B99
:1020600018211827182D1833183918401846184CFD
:1020700018521858185E1864186A18711877187D65
:10208000188300000001000200040005000600079C
:102090000009000A000B000C000D000F00100011D9
:1020A000001200140015001600170018001A001B7B
:1020B000001C001D001F002000210022002300251D
:1020C000002600270028002A002B002C002D002EBF
:1020D0000030003100320033003500360037003860
:1020E0000039003B003C003D003E00400041004202
:1020F000004300440046004700480049004B004CA4
:10210000004D004E004F0051005200530054005645
:10211000005700580059005A005C005D005E005FE7
:102120000061006200630064006500670068006988
:10213000006A006C006D006E006F0070007200732A
:1021400000740075007700780079007A007B007DCC
:10215000007E007F0080008200830084008500866E
:1021600000880089008A008B008D008E008F00900F
:102170000091009300940095009600980099009AB1
:10218000009B009C009E009F00A000A100A300A453
:1021900000A500A600A700A900AA00AB00AC00AEF5
:1021A00000AF00B000B100B200B400B500B600B797
:1021B00000B900BA00BB00BC00BD00BF00C000C138
:1021C00000C200C400C500C600C700C800CA00CBDA
:1021D00000CC00CD00CF00D000D100D200D300D57C
:1021E00000D600D700D800D900DB00DC00DD00DE1F
:1021F00000E000E100E200E300E400E600E700E8C0
:1022000000E900EB00EC00ED00EE00EF00F100F261
:1022100000F300F400F600F700F800F900FA00FC03
:1022200000FD00FE00FF01010102010301040105A0
:10223000010701080109010A010C010D010E010F3E
:1022400001100112011301140115011701180119E0
:10225000011A011B011D011E011F01200122012382
:1022600001240125012601280129012A012B012D24
:10227000012E012F013001310133013401350136C6
:1022800001380139013A013B013C013E013F014067
:102290000141014301440145014601470149014A09
:1022A000014B014C014E014F0150015101520154AB
:1022B0000155015601570159015A015B015C015D4D
:1022C000015F0160016101620164016501660167EE
:1022D0000168016A016B016C016D016F0170017190
:1022E000017201730175017601770178017A017B32
:1022F000017C017D017E01800181018201830185D4
:102300000186018701880189018B018C018D018E75
:102310000190019101920193019401960197019816
:102320000199019B019C019D019E019F01A101A2B8
:1023300001A301A401A601A701A801A901AA01AC5A
:1023400001AD01AE01AF01B101B201B301B401B5FC
:1023500001B701B801B901BA01BC01BD01BE01BF9D
:1023600001C001C201C301C401C501C701C801C93F
:1023700001CA01CB01CD01CE01CF01D001D201D3E1
:1023800001D401D501D601D801D901DA01DB01DD83
:1023900001DE01DF01E001E101E301E401E501E625
:1023A00001E801E901EA01EB01EC01EE01EF01F0C6
:1023B00001F101F301F401F501F601F701F901FA68
:1023C00001FB01FC01FE01FF020002010202020406
:1023D0000205020602070209020A020B020C020DA4
:1023E000020F021002110212021402150216021745
:1023F0000218021A021B021C021D021F02200221E7
:10240000022202230225022602270228022A022B88
:10241000022C022D022E023002310232023302352A
:102420000236023702380239023B023C023D023ECC
:10243000024002410242024302440246024702486D
:102440000249024B024C024D024E024F025102520F
:10245000025302540256025702580259025A025CB1
:10246000025D025E025F0261026202630264026553
:10247000026702680269026A026C026D026E026FF4
:102480000270027202730274027502760278027997
:10249000027A027B027D027E027F02800281028339
:1024A00002840285028602880289028A028B028CDB
:1024B000028E028F0290029102930294029502967C
:1024C00002970299029A029B029C029E029F02A01E
:1024D00002A102A202A402A502A602A702A902AAC0
:1024E00002AB02AC02AD02AF02B002B102B202B462
:1024F00002B502B602B702B802BA02BB02BC02BD04
:1025000002BF02C002C102C202C302C502C602C7A4
:1025100002C802CA02CB02CC02CD02CE02D002D146
:1025200002D202D302D502D602D702D802D902DBE8
:1025300002DC02DD02DE02E002E102E202E302E48A
:1025400002E602E702E802E902EB02EC02ED02EE2B
:1025500002EF02F102F202F302F402F602F702F8CD
:1025600002F902FA02FC02FD02FE02FF030103026D
:10257000030303040305030703080309030A030C09
:10258000030D030E030F03100312031303140315AB
:10259000031703180319031A031B031D031E031F4C
:1025A00003200322032303240325032603280329EE
:1025B000032A032B032D032E032F03300331033390
:1025C00003340335033603380339033A033B033C32
:1025D000033E033F034003410343034403450346D3
:1025E00003470349034A034B034C034E034F035075
:1025F0000351035203540355035603570359035A17
:10260000035B035C035D035F0360036103620364B8
:102610000365036603670368036A036B036C036D5A
:10262000036F0370037103720373037503760377FB
:102630000378037A037B037C037D037E038003819D
:102640000382038303850386038703880389038B3F
:10265000038C038D038E03900391039203930394E1
:102660000396039703980399039B039C039D039E82
:10267000039F03A103A203A303A403A603A703A824
:1026800003A903AA03AC03AD03AE03AF03B103B2C6
:1026900003B303B403B503B703B803B903BA03BC68
:1026A00003BD03BE03BF03C003C203C303C403C50A
:1026B00003C703C803C903CA03CB03CD03CE03CFAB
:1026C00003D003D203D303D403D503D603D803D94D
:1026D00003DA03DB03DD03DE03DF03E003E103E3EF
:1026E00003E403E503E603E803E903EA03EB03EC91
:1026F00003EE03EF03F003F103F303F403F503F632
:1027000003F703F903FA03FB03FC03FE03FF0400D2
:102710000401040204040405040604070409040A6D
:10272000040B040C040D040F041004110412041310
:102730000415041604170418041A041B041C041DB1
:10274000041E042004210422042304250426042753
:1027500004280429042B042C042D042E04300431F5
:102760000432043304340436043704380439043B97
:10277000043C043D043E043F044104420443044439
:102780000446044704480449044A044C044D044EDA
:10279000044F04510452045304540455045704587C
:1027A0000459045A045C045D045E045F046004621E
:1027B000046304640465046704680469046A046BC0
:1027C000046D046E046F0470047204730474047561
:1027D000047604780479047A047B047D047E047F03
:1027E00004800481048304840485048604880489A5
:1027F000048A048B048C048E048F04900491049347
:1028000004940495049604970499049A049B049CE8
:10281000049E049F04A004A104A204A404A504A689
:1028200004A704A904AA04AB04AC04AD04AF04B02B
:1028300004B104B204B404B504B604B704B804BACD
:1028400004BB04BC04BD04BF04C004C104C204C36F
:1028500004C504C604C704C804CA04CB04CC04CD10
:1028600004CE04D004D104D204D304D504D604D7B2
:1028700004D804D904DB04DC04DD04DE04E004E154
:0228800004E270
:00000001FF
