:020000040000FA
:10000000020CE7A2874002D322C3220213F4A214F7
:1000100092163014097F0E1218618F198003E4F5CF
:1000200019AD19E4FF0211AB0218AE0210D075F140
:10003000E075D4FF75C78075D77F22020522E4F5ED
:10004000C9222202086C75F42475F5FF53C1BF4321
:10005000C19022020A3CE5C8540453C8FB75CDFE8A
:1000600075CC6875CBFE75CA6843C80442C822E4E3
:10007000F5D122021868E88FF0A4CC8BF0A42CFCF8
:10008000E98EF0A42CFC8AF0EDA42CFCEA8EF0A4FE
:10009000CDA8F08BF0A42DCC3825F0FDE98FF0A48D
:1000A0002CCD35F0FCEB8EF0A4FEA9F0EB8FF0A484
:1000B000CFC5F02ECD39FEE43CFCEAA42DCE35F0C0
:1000C000FDE43CFC22EB9FF5F0EA9E42F0E99D4204
:1000D000F0EC6480C864809845F022EB9FF5F0EA6C
:1000E0009E42F0E99D42F0E89C45F022E8600FEC6A
:1000F000C313FCED13FDEE13FEEF13FFD8F122E85E
:100100006010ECA2E713FCED13FDEE13FEEF13FFFE
:10011000D8F022E8600FEFC333FFEE33FEED33FD7E
:10012000EC33FCD8F122E6FC08E6FD08E6FE08E622
:10013000FF227401FF3395E0FEFDFC080808E62F5E
:10014000FFF618E63EFEF618E63DFDF618E63CFC26
:10015000F622ECF608EDF608EEF608EFF62275F05A
:1001600008758200EF2FFFEE33FECD33CDCC33CCBC
:10017000C58233C5829BED9AEC99E58298400CF5D7
:1001800082EE9BFEED9AFDEC99FC0FD5F0D6E4CE05
:10019000FBE4CDFAE4CCF9A88222B800C1B9005939
:1001A000BA002DEC8BF084CFCECDFCE5F0CBF97806
:1001B00018EF2FFFEE33FEED33FDEC33FCEB33FB9A
:1001C00010D703994004EB99FB0FD8E5E4F9FA2224
:1001D0007818EF2FFFEE33FEED33FDEC33FCC9331F
:1001E000C910D7059BE99A4007EC9BFCE99AF90FE7
:1001F000D8E0E4C9FAE4CCFB2275F010EF2FFFEE53
:1002000033FEED33FDCC33CCC833C810D7079BEC9D
:100210009AE899400AED9BFDEC9AFCE899F80FD515
:10022000F0DAE4CDFBE4CCFAE4C8F9228F547F0283
:100230001216CFC3EF94ACEE940D4003D38001C3EC
:1002400092137F0F1218618F55E57F14607314703D
:10025000030203171470030203331470030203A094
:10026000240460030203B7E5545402600BE55554BF
:100270000160053013028057E5545404602FE555A2
:100280005402600D121480EF640170053013028077
:1002900060E5555404600D121480EF64027005305F
:1002A0001302804D121480EF605A02039B121699BC
:1002B0005005301302802712185A50030203B780EA
:1002C0004330134512180B5010E5555401600A7F56
:1002D000021214F21218B2801D12169950057F02F4
:1002E00002039D121480EF64027010E555540460FF
:1002F0000A7F041214F27F0302039D121480EF6040
:10030000030203B77F0502039D121480EF6003020E
:1003100003B77F0502039D12185A50030203B77FEB
:10032000011214F27F03120D84121724C2147F10DD
:100330000217037F021216CFC3EF94E4EE940C5021
:1003400021E57EB4100CE57DB42707D2147F80121E
:100350001703E57E457D6020E57E157E701A157DCC
:100360008016757D27757E107F02121861EF30E7C9
:1003700007C2147F8012170312172450047F0480D1
:100380001CE57E457D600A7F10121861EF640F70D6
:1003900026121480EF70047F0580027F01020D8415
:1003A00012185A4012121480EF70047F0580027FE9
:1003B00001120D84121724228E5B8F5C8D5DE55D2A
:1003C00020E00302047325E025E02480F8120126D2
:1003D00078081200ECC004C005C006C007E55D2522
:1003E000E025E02480F8120126D003D002D001D00D
:1003F00000C3EF9BFBEE9AFAED99F9EC98F8E4FC58
:10040000FDEB255CFFEA355BFEED39FDEC38FCE5E4
:100410005D25E025E02480F8120152E55D25E02508
:10042000E02480F812012678081200EC8E5E8F5FBF
:10043000E55D30E11FE55F25E0FFE55E33FE74B862
:100440002FF58274203EF583E493FC740193FD7FC5
:100450000302051EE55F25E0FFE55E33FE74B82F5D
:10046000F58274203EF583E493FC740193FD7F01D3
:1004700002051EE55D25E025E02480F812012678BE
:10048000051200ECC004C005C006C007E55D25E00C
:1004900025E02480F8120126D003D002D001D0003C
:1004A000C3EF9BFBEE9AFAED99F9EC98F8E4FCFDAA
:1004B000EB255CFFEA355BFEED39FDEC38FCE55DD4
:1004C00025E025E02480F8120152E55D25E025E0D5
:1004D0002480F812012678051200EC8E5E8F5FE50D
:1004E0005D30E11EE55F25E0FFE55E33FE74B82F69
:1004F000F58274183EF583E493FC740193FD7F024A
:10050000801CE55F25E0FFE55E33FE74B82FF582C1
:1005100074183EF583E493FC740193FDE4FF121616
:10052000BD22C0E0C0F0C083C082C0D075D000C082
:1005300000C001C002C003C004C005C006C007203F
:10054000120DD21253C1EF53E67F5391FBD2C53047
:10055000C203020610E5C054F0605424F070030298
:1005600005EA24D070030205EC24F07003020602B1
:1005700024306003020608C2C5E5F455F554FEFFB9
:10058000E5C255F554FE6F6003020618D210C21181
:10059000E5C2540164017013AF25AE241209568FD1
:1005A000C20525E52570710524806DD2C1806930B2
:1005B0001013C210D211AFC27524008F257526000A
:1005C000752700802130110DC211E525ADC2F5243B
:1005D000EDF5258011ADC2AF25AE241212F9052527
:1005E000E52570020524D2C1802E801630C129AFC6
:1005F00025AE241209568FC20525E525701A05245B
:100600008016C212C2C4801053C17F43C1808000D3
:10061000C2C5C2C4C2C1C21220121243C110759316
:10062000F975924D53913F43910443E680C2C0D087
:1006300007D006D005D004D003D002D001D000D01E
:10064000D0D082D083D0F0D0E03253E6F77F3212A0
:1006500014A8E4F579757B07757CD0757A80D2157E
:100660007F011216228E558F56E5567805C333CE7C
:1006700033CED8F9FFE4FCFD7880120152E556250F
:10068000E0FFE55533FE74B82FF58274183EF5830C
:10069000E493FC740193FDE4FF1216BD7F02121671
:1006A000228E558F56E5567F00FEE4FCFD788412BD
:1006B0000152E55625E0FFE55533FE74B82FF5826B
:1006C00074203EF583E493FC740193FD7F011216C0
:1006D000BD7F031216228E558F56E5567805C3331B
:1006E000CE33CED8F9FFE4FCFD7888120152E556EE
:1006F00025E0FFE55533FE74B82FF58274183EF5FA
:1007000083E493FC740193FD7F021216BD7F0412F3
:1007100016228E558F56E5567F00FEE4FCFD788C40
:10072000120152E55625E0FFE55533FE74B82FF56A
:100730008274203EF583E493FC740193FD7F0312E1
:1007400016BD7F1B1216228E558F56E4F554C3E555
:1007500054940774809480500BAF56AE55121075A8
:10076000055480EA75BB01D28C43E608227F0F1244
:100770001861EF13921330134F200F4CE4F50BF573
:100780000AF509F508F554C3E5549404748094807F
:100790005032AF0BAE0AAD09AC0878081201138FC6
:1007A0000B8E0A8D098C08E5542417FF121861E599
:1007B0000B4FF50BE50AF50AE509F509E508F5081B
:1007C000055480C3D20F8008201305300F02C20FDA
:1007D000E4F558F557F556F555F554C3E55494042A
:1007E000748094805032AF58AE57AD56AC557808EF
:1007F0001201138F588E578D568C55E554241BFFCC
:10080000121861E5584FF558E557F557E556F55676
:10081000E555F555055480C3AF13AE12AD11AC10BC
:10082000AB58AA57A956A855C31200C5603DC20CC3
:10083000AC55EC3350028001C3920DAE57AD56ACAF
:10084000558558178E168D158C14AE57AD56AC5570
:100850008558138E128D118C10AF58AE57AD56AC13
:1008600055EC4D4E4FC36001D3920C22C0E0C0F056
:10087000C083C082C0D075D000C000C001C002C01B
:1008800003C004C005C006C007AF0FAE0EAD0DAC6F
:100890000CEF2401F50FE43EF50EE43DF50DE43CCC
:1008A000F50C300C60300D277814120132EC4D4EEF
:1008B0004F7052AF0FAE0EAD0DAC0CEF24FFF50F25
:1008C000EE34FFF50EED34FFF50DEC34FF802478A7
:1008D0001474FF120134EC4D4E4F7029AF0FAE0E61
:1008E000AD0DAC0CEF2401F50FE43EF50EE43DF543
:1008F0000DE43CF50CAF13AE12AD11AC108F178E9A
:10090000168D158C14300F26AF0BAE0AAD09AC084E
:10091000AB0FAA0EA90DA80CC31200DB4010D20E1B
:10092000C20F750B00750A0075090075080075ACDB
:100930001475AD940075AC1475AD9CD007D006D07D
:1009400005D004D003D002D001D000D0D0D082D0C6
:1009500083D0F0D0E0328E608F61C3E56094105098
:10096000081216F28F68020A39E561541FF569FD15
:100970007C0064047011852866852967E566F53674
:10098000E567F537020A28ED64064C7011852A6682
:10099000852B67E566F538E567F539020A28E569CC
:1009A000FD7C0064087010852C66852D67E566F572
:1009B0003AE567F53B8071ED640A4C7010852E6650
:1009C000852F67E566F53CE567F53D805BE569FDEC
:1009D0007C00640C7010853066853167E566F53EF5
:1009E000E567F53F8042ED64134C703C1215598F5A
:1009F000658E648D638C62756816C3E568941374A4
:100A00008094804023E565FF74322568F8A607AF1F
:100A100065AE64AD63AC6278081200EC8F658E64DD
:100A20008D638C62156880D274322569F8E6F568AA
:100A3000E569640270035334EFAF6822C0E0C0F090
:100A4000C083C082C0D075D000C000C001C002C049
:100A500003C004C005C006C007AF79D3EF94037488
:100A6000809480500BAD79AFBDAEBE1203B8800745
:100A7000AFBDAEBE121075AF79EF64047005857816
:100A800079802B0579AF79D3EF94037480948040FB
:100A900003757900E57C157C7002157B14AE7B4EE6
:100AA000700C757B07757CD0857978757904E5794C
:100AB00014600F1460111460132403701475BB01CB
:100AC000801275BB02800D75BB03800875BB048066
:100AD0000375BB1BC2EDD007D006D005D004D003F0
:100AE000D002D001D000D0D0D082D083D0F0D0E0DE
:100AF00032AFA975AEA575AEF175AC0575AD60E503
:100B0000AC5480648060F875AC0675AD0EE5AC54ED
:100B100080648060F875AC0975AD80E5AC54806484
:100B20008060F875AC04E4F5ADE5AC548064806099
:100B3000F875AC0443AD80E5AC5480648060F87512
:100B4000A9747D507C01ED1D70011CED4C70F77592
:100B5000AC85E5AC5480648060F8E5AD541060EF7E
:100B600075AC0575AD40E5AC5480648060F875AC3B
:100B7000047C017D00ED1D70011CED4C70F775B516
:100B8000208FA9E5A954806480C37001D350F47507
:100B9000AC0475AD9CE5AC5480648060F8223017DD
:100BA0003BE4F554C3E55494087480948050217854
:100BB000A5E6FE08E6FF2400F58274003EF583E01A
:100BC000FD1215DF78A606E618700106055480D4DC
:100BD000C378A5E69404406FC21780647F12121890
:100BE000618F54E554B457127D017F12121740D221
:100BF00017E478A5F608F6021637E5546452703CFF
:100C00007D017F12121740E478A5F608F618F60861
:100C1000F678A5E6FE08E6FFC3EE9404501C121613
:100C2000AB78A5E6FC08E62400F58274003CF58369
:100C3000EFF006E61870DA0680D78004E554600706
:100C4000E4FD7F121217402278A116E66003020C21
:100C5000E6760A7F111218618F54E55478A4666015
:100C600002A654120F40300224C378A3E694F4186D
:100C7000E69401503C0806E61870010678A3E66485
:100C8000F4700418E664017028D20480243007212F
:100C900078A4E6FF78A2E6FC08E6FDC39FEC94008A
:100CA000400FED94F4EC94015007D2147F1012170A
:100CB00003200206E478A2F608F67F003006027FE1
:100CC000027E003005027E01EE4FFF7E0030020200
:100CD0007E04EF4EFF7E00300B027E08EF4EF5548F
:100CE000FD7F031217402212002878FFE4F6D8FD9A
:100CF0009000007F007E10E4F0A3DFFCDEFA758137
:100D0000A6020D3F021121E493A3F8E493A340034C
:100D1000F68001F208DFF48029E493A3F854072455
:100D20000CC8C333C4540F4420C8834004F4568015
:100D30000146F6DFE4800B01020408102040809099
:100D400018B5E47E019360BCA3FF543F30E509541D
:100D50001FFEE493A360010ECF54C025E060A840BD
:100D6000B8E493A3FAE493A3F8E493A3C8C582C8B4
:100D7000CAC583CAF0A3C8C582C8CAC583CADFE989
:100D8000DEE780BE8F56E55614602514603A146085
:100D90004214605614606124056003020E1D121295
:100DA000C5121596121453D214E4FF121578806DF3
:100DB000C2147F01121578C21412000E12177DE4BE
:100DC000FD7F101217408055D2147F01121578D282
:100DD000148020D2147F01121578D21412000E1242
:100DE00014CE757D27757E108033C2147F011215D5
:100DF00078C21412000E8025E4FD7F1012174012F5
:100E00001789C2147F01121578C214E4FF121578F5
:100E1000E4FF12128FC21412000E1218B285567F10
:100E200022151BE51B6003020EB7751B0A7F0E120D
:100E300018618F54E5546519600A301607AD54E403
:100E4000FF1211AB1214808F54E554651D60061219
:100E5000128F85541DE51824FD602214603714603C
:100E60004324037052051A051AAD1A7F011211AB03
:100E7000151CE51C7041751C7875180322151A1590
:100E80001AAD1A7F011211AB151CE51C7029751CD7
:100E90007875180222151CE51C701C751805751C48
:100EA00014FD800E151CE51C700D751804751C14BE
:100EB0007DC07F011211AB22EF24FFF55EEE34FC02
:100EC000F55DE434FFF55CE434FFF55BAF86E4FCEC
:100ED000FDFE7802120113C004C005C006C007AFB2
:100EE00085E4FCFDFE78061200FFD003D002D0019D
:100EF000D000EF4BFBEE4AFAED49F9EC48F8C3E5B8
:100F00005E9BF55EE55D9AF55DE55C99F55CE55BFC
:100F100098F55BAF5EAE5DAD5CFC7B487AE879012D
:100F200078001200768F5E8E5D8D5C8C5BE47BDEDC
:100F30007A87F9F81211678F5E8E5D8D5C8C5B226B
:100F4000C3208701D39214C2073002083003052062
:100F50001402D207300306301403D38001C3920277
:100F6000C3301401D39203C3208501D392143008F7
:100F700006301403D38001C39205C3301401D39209
:100F800008C3208601D39214300906301403D3809D
:100F900001C39206C3301401D39209C3209001D338
:100FA0009214300106301403D38001C3920BC33076
:100FB0001401D39201228F53E4FF120D8412064ACA
:100FC0007F021216CFC3EF94ACEE940D500D1214A5
:100FD00080EF640160057F05120D84E57F64056084
:100FE00036E4FF1215375003120C487F01121537F3
:100FF0005003120E217F021215375003120B9E7FF1
:1010000003121537500312076D7F0412153750CBAA
:10101000AF5312022C80C422E4F566F565F564F541
:1010200063F567C3E5679404748094805032AF66BB
:10103000AE65AD64AC6378081201138F668E658D62
:10104000648C63E5672413FF121861E5664FF5664B
:10105000E565F565E564F564E563F563056780C3FB
:101060001218A6AE65AD64AC6385660F8E0E8D0D4D
:101070008C0C0218AAAD07AC067890E625E0249106
:10108000F8A60408A605789006E664087001F6E460
:10109000FEFFFDEDC39408748094805012ED25E0AE
:1010A0002491F8E6FA08E62FFFEA3EFE0D80E4EF11
:1010B00030E2062404FFE43EFEEF7803CEC313CEF5
:1010C00013D8F9FF120EB8AD07AC067F040216BDA7
:1010D000C0E0C0D075D000C000C004C005C006C0CC
:1010E00007D218AF6E746F2FF87601056EAF6EEFF2
:1010F0006405701BF56EAF77AE76AD75AC74EF24FA
:1011000001F577E43EF576E43DF575E43CF574537E
:10111000C83FD007D006D005D004D000D0D0D0E052
:10112000321212C51215961212201215C712151579
:101130001211E61215F6E4F5521200035003435261
:10114000011217EF500343520412180B500343527D
:1011500002E552600D1213C3AF52120FB6121258AD
:1011600080D112160C80CCC2D5E830E70FB2D5E49E
:10117000C39BFBE49AFAE499F9E498F8EC30E7179A
:10118000B2D512119D12019AE4C39BFBE49AFAE4D2
:1011900099F9E498F8800312019A30D50DE4C39FC1
:1011A000FFE49EFEE49DFDE49CFC22C374FF9DFED3
:1011B000EF601A14702F8D1E8EFCED700453DABF91
:1011C00022E5DA54406440601C43DA40228D198ED7
:1011D000EAAF05EF700453DBBF22E5DB5440644007
:1011E000600343DB402285A75312179512179F1205
:1011F000003E12174D12006F12002E12171412002B
:10120000421217A912186E120AF112175912187207
:1012100012181412187612181B12132D8553A722B8
:10122000E478A5F608F678A5E6FE08E6FFC3EE9496
:1012300004501C1216AB78A5E6FC08E62400F582E3
:1012400074003CF583EFF006E61870DA0680D7E408
:1012500078A5F608F6C2172285A7531217C71217EA
:10126000F912180212183712188E12184C1218534D
:101270001217711218921216731215AF12164C1221
:1012800018961217331217D11213918553A722EF14
:1012900014601014601A14601E24037027E4F518FB
:1012A000FD801C751802751C78751A0AAD1A800F1E
:1012B0007518017D808008751804751C147DC07F29
:1012C000011211AB22C203C202C207C204C208C289
:1012D00009C205C206C20AC200C201C20B78A176C9
:1012E0000AE408F608F67F1112186178A4A607C26E
:1012F00093C296120F40020F408E608F618D62C3C1
:10130000E560941050030216E153611F756000C33D
:10131000E561940EE5609400401274322561F8A6F0
:1013200062E56164164560700312101822AFA9AE21
:10133000B275A904E5A954806480C37001D350F448
:1013400053B27F75B52075B5A60000EE548042B249
:101350008FA9E5A954806480C37001D350F422AFF3
:10136000A9AEB275A904E5A954806480C37001D305
:1013700050F453B27F75B52075B5A60000EE5480C9
:1013800042B28FA9E5A954806480C37001D350F4A0
:1013900022AFA9AEB275A904E5A954806480C370D8
:1013A00001D350F453B27F75B52075B5A60000EE99
:1013B000548042B28FA9E5A954806480C37001D3E0
:1013C00050F42285A7531218301217DB1217E512BA
:1013D00018821218861218A21217B3121765121665
:1013E0006012005612168612188A1200461217BD95
:1013F0008553A722C0E0C0D075D000C007D2EC3022
:10140000150D057AAF7AEF6488700FC215800B1541
:101410007AAF7AEF64777002D215857A8CD007D0D4
:10142000D0D0E032AFA9AEB275A904E5A95480646A
:1014300080C37001D350F453B27F75B5200000EE25
:10144000548042B28FA9E5A954806480C37001D34F
:1014500050F422C2ADC218E4F56EAF6EC3EF94052E
:1014600074809480500CAF6E746F2FF8E4F6056EA4
:1014700080E8E4F56EF577F576F575F574D2AD2272
:101480007F003005027F017E003006027E02EE42C0
:1014900007EF14600A14600A24027009E4FF227F37
:1014A00001227F02227F0322C28D858C8AD28CADDD
:1014B000071FED6014E4FEEEC39404748094805022
:1014C000EE308DFDC28D0E80EEC28CC28D22C21216
:1014D00043C1107593F975924D53913F4391044365
:1014E000E68053C17F43C180C2C5C2C4C2C143E6C6
:1014F000012253E6FEEF5407FEE53454F84EF5346E
:10150000EF24FC6009240270085341FE800353411C
:10151000F943E60122E4FFEFC394207480948050E5
:101520000974322FF8E4F60F80ED7532017533112E
:1015300075408075430A22C213EFC39405748094EA
:10154000805013C2AD746F2FF8E66008746F2FF8E7
:10155000E4F6D213D2ADA213221218A6AF0FAE0E2C
:10156000AD0DAC0C8F6D8E6C8D6B8C6A1218AAAFA2
:101570006DAE6CAD6BAC6A22EF600F147017C330A8
:101580001401D3920AA20A929322C3301401D39277
:1015900000A200929622C216E4F518F51D751B0AEA
:1015A000751C14FDFF1211ABE4FD7F010211ABE5C8
:1015B000C85404FF53C8FBE4F5CDF5CCF5CBF5CA10
:1015C00053C8FBEF42C822E4F50FF50EF50DF50CFC
:1015D000F50BF50AF509F508C20FC20EC20C228FF1
:1015E000828E83C2AF75B7A575B7F1758F05EDF023
:1015F000E4F58FD2AF2285A75312182212187A125F
:10160000183E12189A1214248553A72285A7531244
:10161000182912187E12184512189E12135F85534E
:10162000A7228FBB7F0A1214A8C2EDD2EC30EDFDC9
:10163000C2EDAFBDAEBE22900000C2AF75B7A575BA
:10164000B7F1758F07E4F0F58FD2AF22E59154041E
:10165000FF5391FBE4F593F5925391FBEF429122F6
:10166000AF885388AF758C80EF5440FEEF54104E16
:10167000428822AF885388AFE4F58CEF5440FEEFE8
:1016800054104E428822E59154045391FB7593F90E
:1016900075924D43910442912278A4E6FFD318E657
:1016A0009F18E694004002D322C3228F828E83E4E7
:1016B000C2AF758F0493FFE4F58FD2AF2253E6FEDD
:1016C000EF25E02428F8A60408A60543E6012253E6
:1016D000E6F7EF25E02428F8E6FE08E6FF43E608F3
:1016E00022EE540FFE74002FF58274003EF583ED58
:1016F000F022EE540FFE74002FF58274003EF58345
:10170000E0FF2253E6FEEFF45234301403EF42348C
:1017100043E6012275900775A57875D50975A70F61
:1017200075A5782230040AC204E478A2F608F6D33C
:1017300022C322E4F5F475F5FE53C16F43C1402284
:1017400053E6FE74322FF8A60543E6012275BB016D
:1017500075BC11E4F5C4F5C32275A904E5A954804C
:10176000648070F822E4F5A9E5A95480648070F8DB
:101770002275A904E5A95480648070F82253E6FE1E
:1017800053E67F5391FBC2C12253E6FE53C16F4320
:10179000C140C2C122E4F5A753D9BF75D90822536D
:1017A000DF7F75CE08E4F5D322E4F5A775E3C075B5
:1017B000E1042243B280E5B2544060FA2275E68328
:1017C00075F68175A8A222E4F5A775D90853D8BF8C
:1017D0002275E602E4F5F675A8802253DF7F75DAFC
:1017E00042E4F5FC2253DF7F75DB42E4F5EA223068
:1017F0008503208602D322C32253DF7FE4F5DAF586
:10180000FC2253DF7FE4F5DBF5EA22300E04C20E42
:10181000D322C322758E047589022275E60275A84B
:101820008022E4F5A775D90222E4F5A775D908222C
:10183000E4F5A743D8402275BC1153E87F2275C751
:101840002075D7DF2275C78075D77F2275C7807551
:10185000D77F2275E3C0E4F5E222A202500122C341
:101860002274322FF8E6FF22C2C153913F3275EF46
:10187000022275B6402243C1402243E8802253E849
:101880007F2275BC192275D10422758E4222E4F59F
:10189000D12253B27F22758E042275E3402275E374
:1018A000C02275E2022253E6FD2243E6022253D90A
:1018B000BF22C20E22C1120000000006000C00125E
:1018C0000019001F0025002B00310037003D0043A8
:1018D000004A00500056005C00620068006E00750F
:1018E000007B00810087008D00930099009F00A677
:1018F00000AC00B200B800BE00C400CA00D100D7DE
:1019000000DD00E300E900EF00F500FB0102010843
:10191000010E0114011A01200126012D01330139A4
:10192000013F0145014B01510157015E0164016A0C
:1019300001700176017C01820189018F0195019B73
:1019400001A101A701AD01B401BA01C001C601CCDA
:1019500001D201D801DE01E501EB01F101F701FD42
:101960000203020902100216021C02220228022EA1
:101970000234023A02410247024D02530259025F09
:101980000265026C02720278027E0284028A029070
:101990000296029D02A302A902AF02B502BB02C1D8
:1019A00002C802CE02D402DA02E002E602EC02F23F
:1019B00002F902FF0305030B03110317031D0324A0
:1019C000032A03300336033C03420348034E035506
:1019D000035B03610367036D03730379038003866D
:1019E000038C03920398039E03A403AA03B103B7D5
:1019F00003BD03C303C903CF03D503DC03E203E83C
:101A000003EE03F403FA04000406040D041304199E
:101A1000041F0425042B04310438043E0444044A02
:101A200004500456045C04630469046F0475047B69
:101A300004810487048D0494049A04A004A604ACD1
:101A400004B204B804BF04C504CB04D104D704DD38
:101A500004E304E904F004F604FC05020508050E9D
:101A60000514051B05210527052D05330539053FFF
:101A70000545054C05520558055E0564056A057067
:101A80000577057D05830589058F0595059B05A1CE
:101A900005A805AE05B405BA05C005C605CC05D335
:101AA00005D905DF05E505EB05F105F705FD06049C
:101AB000060A06100616061C06220628062F0635FC
:101AC000063B06410647064D065306590660066664
:101AD000066C06720678067E0684068B06910697CB
:101AE000069D06A306A906AF06B506BC06C206C833
:101AF00006CE06D406DA06E006E706ED06F306F99A
:101B000006FF0705070B07120718071E0724072AF9
:101B100007300736073C07430749074F0755075B60
:101B200007610767076E0774077A07800786078CC7
:101B300007920798079F07A507AB07B107B707BD2F
:101B400007C307CA07D007D607DC07E207E807EE96
:101B500007F407FB08010807080D08130819081FF8
:101B60000826082C08320838083E0844084A08505D
:101B70000857085D08630869086F0875087B0882C4
:101B80000888088E0894089A08A008A608AC08B32C
:101B900008B908BF08C508CB08D108D708DE08E493
:101BA00008EA08F008F608FC09020908090F0915F7
:101BB000091B09210927092D0933093A094009465A
:101BC000094C09520958095E0964096B09710977C2
:101BD000097D09830989098F0996099C09A209A829
:101BE00009AE09B409BA09C109C709CD09D309D990
:101BF00009DF09E509EB09F209F809FE0A040A0AF6
:101C00000A100A160A1D0A230A290A2F0A350A3B56
:101C10000A410A470A4E0A540A5A0A600A660A6CBE
:101C20000A720A790A7F0A850A8B0A910A970A9D25
:101C30000AA30AAA0AB00AB60ABC0AC20AC80ACE8D
:101C40000AD50ADB0AE10AE70AED0AF30AF90AFFF4
:101C50000B060B0C0B120B180B1E0B240B2A0B3153
:101C60000B370B3D0B430B490B4F0B550B5B0B62BB
:101C70000B680B6E0B740B7A0B800B860B8D0B9322
:101C80000B990B9F0BA50BAB0BB10BB70BBE0BC48A
:101C90000BCA0BD00BD60BDC0BE20BE90BEF0BF5F1
:101CA0000BFB0C010C070C0D0C130C1A0C200C2652
:101CB0000C2C0C320C380C3E0C450C4B0C510C57B8
:101CC0000C5D0C630C690C700C760C7C0C820C881F
:101CD0000C8E0C940C9A0CA10CA70CAD0CB30CB987
:101CE0000CBF0CC50CCC0CD20CD80CDE0CE40CEAEE
:101CF0000CF00CF60CFD0D030D090D0F0D150D1B51
:101D00000D210D280D2E0D340D3A0D400D460D4CB4
:101D10000D520D590D5F0D650D6B0D710D770D7D1C
:101D20000D840D8A0D900D960D9C0DA20DA80DAE83
:101D30000DB50DBB0DC10DC70DCD0DD30DD90DE0EA
:101D40000DE60DEC0DF20DF80DFE0E040E0A0E114F
:101D50000E170E1D0E230E290E2F0E350E3C0E42B1
:101D60000E480E4E0E540E5A0E600E660E6D0E7319
:101D70000E790E7F0E850E8B0E910E980E9E0EA480
:101D80000EAA0EB00EB60EBC0EC20EC90ECF0ED5E8
:101D90000EDB0EE10EE70EED0EF40EFA0F000F064D
:101DA0000F0C0F120F180F1F0F250F2B0F310F37AE
:101DB0000F3D0F430F490F500F560F5C0F620F6816
:101DC0000F6E0F740F7B0F810F870F8D0F930F997D
:101DD0000F9F0FA50FAC0FB20FB80FBE0FC40FCAE5
:101DE0000FD00FD70FDD0FE30FE90FEF0FF50FFB4C
:101DF00010011008100E1014101A10201026102CAC
:101E000010331039103F1045104B10511057105D12
:101E10001064106A10701076107C10821088108F79
:101E20001095109B10A110A710AD10B310B910C0E1
:101E300010C610CC10D210D810DE10E410EB10F148
:101E400010F710FD11031109110F1115111C1122AA
:101E50001128112E1134113A11401147114D11530F
:101E60001159115F1165116B11711178117E118477
:101E7000118A11901196119C11A311A911AF11B5DE
:101E800011BB11C111C711CE11D411DA11E011E645
:101E900011EC11F211F811FF1205120B12111217A9
:101EA000121D1223122A12301236123C124212480C
:101EB000124E1254125B12611267126D1273127974
:101EC000127F1286128C12921298129E12A412AADB
:101ED00012B012B712BD12C312C912CF12D512DB43
:101EE00012E212E812EE12F412FA13001306130CA7
:101EF00013131319131F1325132B13311337133E09
:101F00001344134A13501356135C13621368136F70
:101F10001375137B13811387138D1393139A13A0D7
:101F200013A613AC13B213B813BE13C413CB13D13F
:101F300013D713DD13E313E913EF13F613FC1402A5
:101F40001408140E1414141A14201427142D143306
:101F50001439143F1445144B14521458145E14646D
:101F6000146A14701476147D14831489148F1495D4
:101F7000149B14A114A714AE14B414BA14C014C63C
:101F800014CC14D214D914DF14E514EB14F114F7A3
:101F900014FD1503150A15101516151C1522152804
:101FA000152E1535153B15411547154D155315596A
:101FB000155F1566156C15721578157E1584158AD2
:101FC00015911597159D15A315A915AF15B515BB39
:101FD00015C215C815CE15D415DA15E015E615EDA0
:101FE00015F315F915FF1605160B16111617161E03
:101FF0001624162A16301636163C16421649164F67
:102000001655165B16611667166D1673167A1680CE
:102010001686168C16921698169E16A516AB16B135
:1020200016B716BD16C316C916CF16D616DC16E29D
:1020300016E816EE16F416FA17011707170D171300
:102040001719171F1725172C17321738173E174463
:10205000174A17501756175D17631769176F1775CB
:10206000177B17811788178E1794179A17A017A632
:1020700017AC17B217B917BF17C517CB17D117D79A
:1020800017DD17E417EA17F017F617FC18021808FF
:10209000180E1815181B18211827182D1833183961
:1020A00018401846184C18521858185E1864186AC8
:1020B00018711877187D18830000000100020004D1
:1020C0000005000600070009000A000B000C000DC7
:1020D000000F001000110012001400150016001768
:1020E0000018001A001B001C001D001F002000210A
:1020F000002200230025002600270028002A002BAC
:10210000002C002D002E003000310032003300354D
:102110000036003700380039003B003C003D003EEF
:102120000040004100420043004400460047004890
:102130000049004B004C004D004E004F0051005232
:10214000005300540056005700580059005A005CD4
:10215000005D005E005F0061006200630064006576
:10216000006700680069006A006C006D006E006F17
:1021700000700072007300740075007700780079B9
:10218000007A007B007D007E007F0080008200835B
:1021900000840085008600880089008A008B008DFD
:1021A000008E008F0090009100930094009500969F
:1021B00000980099009A009B009C009E009F00A040
:1021C00000A100A300A400A500A600A700A900AAE2
:1021D00000AB00AC00AE00AF00B000B100B200B484
:1021E00000B500B600B700B900BA00BB00BC00BD26
:1021F00000BF00C000C100C200C400C500C600C7C7
:1022000000C800CA00CB00CC00CD00CF00D000D168
:1022100000D200D300D500D600D700D800D900DB0B
:1022200000DC00DD00DE00E000E100E200E300E4AD
:1022300000E600E700E800E900EB00EC00ED00EE4E
:1022400000EF00F100F200F300F400F600F700F8F0
:1022500000F900FA00FC00FD00FE00FF0101010290
:10226000010301040105010701080109010A010C2C
:10227000010D010E010F01100112011301140115CE
:10228000011701180119011A011B011D011E011F6F
:102290000120012201230124012501260128012911
:1022A000012A012B012D012E012F013001310133B3
:1022B00001340135013601380139013A013B013C55
:1022C000013E013F014001410143014401450146F6
:1022D00001470149014A014B014C014E014F015098
:1022E0000151015201540155015601570159015A3A
:1022F000015B015C015D015F0160016101620164DC
:102300000165016601670168016A016B016C016D7D
:10231000016F01700171017201730175017601771E
:102320000178017A017B017C017D017E01800181C0
:102330000182018301850186018701880189018B62
:10234000018C018D018E0190019101920193019404
:102350000196019701980199019B019C019D019EA5
:10236000019F01A101A201A301A401A601A701A847
:1023700001A901AA01AC01AD01AE01AF01B101B2E9
:1023800001B301B401B501B701B801B901BA01BC8B
:1023900001BD01BE01BF01C001C201C301C401C52D
:1023A00001C701C801C901CA01CB01CD01CE01CFCE
:1023B00001D001D201D301D401D501D601D801D970
:1023C00001DA01DB01DD01DE01DF01E001E101E312
:1023D00001E401E501E601E801E901EA01EB01ECB4
:1023E00001EE01EF01F001F101F301F401F501F655
:1023F00001F701F901FA01FB01FC01FE01FF0200F6
:102400000201020202040205020602070209020A90
:10241000020B020C020D020F021002110212021432
:102420000215021602170218021A021B021C021DD4
:10243000021F022002210222022302250226022775
:102440000228022A022B022C022D022E0230023117
:102450000232023302350236023702380239023BB9
:10246000023C023D023E024002410242024302445B
:102470000246024702480249024B024C024D024EFC
:10248000024F02510252025302540256025702589E
:102490000259025A025C025D025E025F0261026240
:1024A000026302640265026702680269026A026CE2
:1024B000026D026E026F0270027202730274027584
:1024C000027602780279027A027B027D027E027F26
:1024D00002800281028302840285028602880289C8
:1024E000028A028B028C028E028F0290029102936A
:1024F00002940295029602970299029A029B029C0C
:10250000029E029F02A002A102A202A402A502A6AC
:1025100002A702A902AA02AB02AC02AD02AF02B04E
:1025200002B102B202B402B502B602B702B802BAF0
:1025300002BB02BC02BD02BF02C002C102C202C392
:1025400002C502C602C702C802CA02CB02CC02CD33
:1025500002CE02D002D102D202D302D502D602D7D5
:1025600002D802D902DB02DC02DD02DE02E002E177
:1025700002E202E302E402E602E702E802E902EB19
:1025800002EC02ED02EE02EF02F102F202F302F4BB
:1025900002F602F702F802F902FA02FC02FD02FE5C
:1025A00002FF0301030203030304030503070308F7
:1025B0000309030A030C030D030E030F0310031298
:1025C000031303140315031703180319031A031B3A
:1025D000031D031E031F03200322032303240325DB
:1025E000032603280329032A032B032D032E032F7D
:1025F000033003310333033403350336033803391F
:10260000033A033B033C033E033F034003410343C0
:1026100003440345034603470349034A034B034C62
:10262000034E034F03500351035203540355035603
:1026300003570359035A035B035C035D035F0360A5
:102640000361036203640365036603670368036A47
:10265000036B036C036D036F0370037103720373E9
:102660000375037603770378037A037B037C037D8A
:10267000037E03800381038203830385038603872C
:1026800003880389038B038C038D038E03900391CE
:102690000392039303940396039703980399039B70
:1026A000039C039D039E039F03A103A203A303A412
:1026B00003A603A703A803A903AA03AC03AD03AEB3
:1026C00003AF03B103B203B303B403B503B703B855
:1026D00003B903BA03BC03BD03BE03BF03C003C2F7
:1026E00003C303C403C503C703C803C903CA03CB99
:1026F00003CD03CE03CF03D003D203D303D403D53A
:1027000003D603D803D903DA03DB03DD03DE03DFDB
:1027100003E003E103E303E403E503E603E803E97D
:1027200003EA03EB03EC03EE03EF03F003F103F31F
:1027300003F403F503F603F703F903FA03FB03FCC1
:1027400003FE03FF0400040104020404040504065C
:1027500004070409040A040B040C040D040F0410FC
:102760000411041204130415041604170418041A9F
:10277000041B041C041D041E042004210422042341
:1027800004250426042704280429042B042C042DE2
:10279000042E043004310432043304340436043784
:1027A00004380439043B043C043D043E043F044126
:1027B0000442044304440446044704480449044AC8
:1027C000044C044D044E044F045104520453045469
:1027D0000455045704580459045A045C045D045E0B
:1027E000045F0460046204630464046504670468AD
:1027F0000469046A046B046D046E046F047004724F
:10280000047304740475047604780479047A047BF0
:10281000047D047E047F0480048104830484048591
:10282000048604880489048A048B048C048E048F33
:1028300004900491049304940495049604970499D5
:10284000049A049B049C049E049F04A004A104A277
:1028500004A404A504A604A704A904AA04AB04AC18
:1028600004AD04AF04B004B104B204B404B504B6BA
:1028700004B704B804BA04BB04BC04BD04BF04C05C
:1028800004C104C204C304C504C604C704C804CAFE
:1028900004CB04CC04CD04CE04D004D104D204D3A0
:1028A00004D504D604D704D804D904DB04DC04DD41
:0828B00004DE04E004E104E28F
:00000001FF
